:107000000C9458380C94913A0C9475380C9475384B
:107010000C9475380C9475380C9475380C9475383C
:107020000C9475380C9475380C9475380C9475382C
:107030000C9475380C9475380C9475380C9475381C
:107040000C9475380C9475380C9475380C9475380C
:107050000C947538040309041E034E0069006D008A
:107060006100200041006C0061006D00610074004F
:10707000730061007A00160341005600520055006B
:107080005300420042006F006F00740012011001B3
:10709000FF000008C1160100000101020001090201
:1070A0001200010100800A09040000000000000035
:1070B00011241FBECFE5D8E0DEBFCDBF10E0A0E6B3
:1070C000B0E0EEE4F7E702C005900D92A236B107FA
:1070D000D9F710E0A2E6B0E001C01D92AC39B107CB
:1070E000E1F70E9412390C94A53B0C940038F894F7
:1070F00081E180935700E89581E08BBF1BBEE09152
:107100006200F091630009950895FC01818181304E
:1071100021F40E94773880E02EC0823011F581E0A2
:1071200080936400938180E0228130E0822B932B56
:10713000909366008093650010926800109267003B
:10714000E199FECFF894E0916500F091660083E04C
:1071500080935700E895789407B600FCFDCF8FEF39
:107160000AC0833039F41092690080E880936A0085
:1071700082E001C080E029E630E030938100209376
:10718000800008951F9340916400413009F045C08C
:10719000662309F444C070E011E0F894E0916700C0
:1071A000F09168004091650050916600E40FF51F72
:1071B000DC01A70FB11D11963C91119720E04C9175
:1071C00050E0422B532B0A0110935700E8951124ED
:1071D000789440916700509168004E5F5F4F5093E4
:1071E0006800409367004038510588F0F894E091BA
:1071F0006500F091660085E080935700E8957894EB
:1072000007B600FCFDCF1092640081E009C07E5FEC
:10721000761708F4C2CF80E003C08FEF01C080E092
:107220001F9108958FEF8BBB1ABA88BB17BA15BA96
:1072300084BB12BA11BACC9B02C00E94773881E09D
:107240008BBF82E08BBF2EE088E190E00FB6F89410
:10725000A89581BD0FBE21BD0E94713A8B9A80E036
:10726000A895EFE3FFE13197F1F700C000008F5FD1
:107270008A3FB1F78B987894AF9AA8950E944139CC
:10728000FCCF1F93CF93DF936091820063500AF489
:10729000B3C080917F00CCE0D0E0C81BD109CA57B1
:1072A000DF4F80917E008D3209F093C0683009F085
:1072B000A1C083EC809372008AE5809360001092F5
:1072C00071008881807621F0CE010E9485386DC0E2
:1072D0009A8110927B008981882331F410927C007E
:1072E0002BE730E082E05DC0853031F4909383007D
:1072F0002BE730E080E055C08630E1F58B818130AE
:1073000041F48CE890E7909381008093800082E1C3
:107310002DC0823041F48EE990E7909381008093F4
:10732000800082E123C08330F1F4992341F484E5A5
:1073300090E7909381008093800084E017C09130A3
:1073400041F488E590E790938100809380008EE17E
:107350000DC0923051F486E790E7909381008093BE
:10736000800086E103C080E001C080E090E490935B
:1073700071001BC0883071F0893031F49093850022
:107380002BE730E080E00DC08A3041F02BE730E0A1
:1073900080E007C025E830E081E003C02BE730E063
:1073A00081E030938100209380008F3F41F49881E9
:1073B00099230CF48E8190E89093710007C09F810F
:1073C000992321F49E81981708F4892F80936100F6
:1073D00011C08091710088236CF4CE010E94C238E4
:1073E0008F3F21F48EE18093600004C0882311F068
:1073F00010926100109282008091600084FF58C05A
:10740000809161008F3F09F453C0182F893008F034
:1074100018E0811B809361009091720088E88927B1
:1074200080937200112309F451C0209180003091A3
:1074300081008091710086FF16C0412F415050E0BD
:10744000A2E7B0E0CD010296840F951FF9011196D5
:1074500064916D933196A817B907D1F74F5F5F4FCD
:10746000240F351F14C0D901412F415050E0E2E7ED
:10747000F0E0CF010296840F951F31966D916193D4
:10748000E817F907D9F74F5F5F4F240F351F309387
:1074900081002093800083E790E0612F0E948D3A65
:1074A0001C5F1C3018F48FEF809361001093600014
:1074B00080B38C7091F483E190B39C7071F481502F
:1074C000D9F71092830010927D0007C083E790E007
:1074D000612F0E948D3A1C5FE6CFDF91CF911F9103
:1074E000089585B7836085BF8BB780648BBF08958F
:1074F000A82FB92F80E090E041E050EA609530E09D
:1075000009C02D9182279795879510F0842795279C
:10751000305EC8F36F5FA8F30895EADF8D939D9303
:107520000895CF93CFB7CF93DF93C395839BE9F7AC
:10753000839B0BC0839B09C0839B07C0839B05C0B3
:10754000839B03C0839B01C089C06F93C0917F0060
:10755000DD27CA57DF4F2F9365E5839B03C02F912B
:107560006F91E6CF0F931F934F9320E040E15F931D
:1075700000B30C7003FB27F93F9350E03BE039C0A8
:107580001C7040642F77012F5F5F1EC0406810B3EE
:107590001C702F7752501FC0406400B32F770C70BF
:1075A000D1F15F5F00C023C0406210B32F771C7021
:1075B00091F15F5F00C025C00C701027515012F48C
:1075C0005D5F0000115027952C3F10B3C8F61C706A
:1075D0000127015027952C3FC8F64227499300B355
:1075E0000C7010274F73115027952C3FA8F6469525
:1075F000469510B31C7079F00127015027952C3F58
:1076000098F66B5A60F3315000B3B0F600C010E446
:107610001ABF002717C03B503195C31BD04010E460
:107620001ABF0881033CF9F00B34E9F020917D008A
:107630001981110F1213EDCF093651F10D3211F0EE
:10764000013E39F7009384003F915F914F911F9164
:107650000F912F916F91CAB7C6FD67CFDF91CF9180
:10766000CFBFCF91189520918400222369F3109108
:107670008200112339F534303AF13093820020939F
:107680007E0010917F003BE0311B30937F001CC0D7
:10769000009182000130B4F40AE53091600034FDBD
:1076A00014C000936000C2E7D0E013C0052710E0CB
:1076B00000C0000002BB1AC0052710E0221F1DC039
:1076C00010E021C04AE502C032ED432FC4E1D0E012
:1076D00032E011B31C60939A02B311BB5CE020E866
:1076E00065E320FF052702BB279517951C3FF0F6A1
:1076F0006695B8F7B1F720FF052702BB27951795C8
:107700001C3FD0F62795179517FF052700001C3F53
:1077100002BBB0F629913A9519F7037F10918300C7
:10772000110FC651D04002BB11F010937D0010E440
:107730001ABF086011B3137F402F437F54E05A955E
:0E774000F1F702BB11BB42BB7FCFF894FFCF25
:02774E005AFFE0
:040000030000700089
:00000001FF
